:100000000C945A020C9482020C9482020C94820288
:100010000C9482020C9482020C9482020C94820250
:100020000C9482020C9482020C9482020C94820240
:100030000C9482020C9482020C9482020C94820230
:100040000C94BF0B0C9482020C9400080C94DA07F9
:100050000C9482020C9482020C9482020C94820210
:100060000C9482020C94820200000008000201003D
:100070000003040700000000000000000000000072
:100080000000000000005F0000000000000007000A
:100090000700000000147F147F14000000242A7F52
:1000A0002A1200000023130864620000003649553C
:1000B000225000000000050300000000001C224147
:1000C000000000000041221C0000000000082A1C63
:1000D0002A0800000008083E0808000000A0600090
:1000E0000000000000080808080800000060600028
:1000F000000000000020100804020000003E5149EA
:10010000453E00000000427F40000000006251496F
:1001100049460000002241494936000000181412E7
:100120007F1000000027454545390000003C4A4942
:1001300049300000000171090503000000364949FB
:100140004936000000064949291E000000003636E5
:10015000000000000000AC6C000000000008142249
:100160004100000000141414141400000041221473
:100170000800000000020151090600000032497920
:10018000413E0000007E0909097E0000007F4949C8
:1001900049360000003E414141220000007F4141BC
:1001A000221C0000007F494949410000007F0909E5
:1001B00009010000003E414151720000007F080823
:1001C000087F00000000417F410000000020404106
:1001D0003F010000007F081422410000007F4040E2
:1001E00040400000007F020C027F0000007F0408F6
:1001F000107F0000003E4141413E0000007F0909A0
:1002000009060000003E4151215E0000007F0919EF
:100210002946000000264949493200000001017FBB
:1002200001010000003F4040403F0000001F20400F
:10023000201F0000003F4038403F000000631408CA
:1002400014630000000304780403000000615149B6
:1002500045430000007F4141000000000002040807
:10026000102000000041417F000000000004020156
:1002700002040000008080808080000000010204F1
:10028000000000000020545454780000007F4844CF
:10029000443800000038444428000000003844443A
:1002A000487F0000003854545418000000087E09AC
:1002B000020000000018A4A4A47C0000007F080431
:1002C0000478000000007D00000000000080847DB4
:1002D00000000000007F10284400000000417F4023
:1002E00000000000007C041804780000007C080472
:1002F0007C000000003844443800000000FC242446
:100300001800000000182424FC00000000007C08F5
:1003100004000000004854542400000000047F44FE
:1003200000000000003C40407C000000001C204019
:10033000201C0000003C4030403C000000442810DD
:1003400028440000001CA0A07C000000004464546D
:100350004C440000000836410000000000007F000F
:10036000000000000041360800000000000201010A
:10037000020100000002050502000000000000006C
:10038000250028002B0000000000240027002A0080
:10039000040404040404040402020202020203032B
:1003A0000303030301020408102040800102040833
:1003B000102001020408102000407A10F35A00A017
:1003C000724E18090010A5D4E80000E8764817001E
:1003D00000E40B54020000CA9A3B000000E1F5055E
:1003E000000080969800000040420F000000A086A8
:1003F00001000000102700000000E80300000000DA
:100400006400000000000A0000000000010000007D
:1004100000002C76D888DC674F0823DFC1DFAE5997
:10042000E1B1B796E5E3E453C63AE651997696E82A
:10043000E6C28426EB898C9B62ED407C6FFCEFBCAE
:100440009C9F40F2BAA56FA5F490055A2AF75C93D9
:100450006B6CF9676DC11BFCE0E40D47FEF520E60F
:10046000B500D0ED902E0300943577050080841EF2
:10047000080000204E0A000000C80C333333330F4D
:10048000986E12831141EF8D2114893BE65516CFEA
:10049000FEE6DB18D1844B381BF77C1D901DA4BBF6
:1004A000E424203284725E228100C9F124ECA1E5AB
:1004B0003D275A0E11241FBECFEFD8E0DEBFCDBFBF
:1004C00013E0A0E0B1E0EEEDF7E202C005900D927E
:1004D000AC30B107D9F724E0ACE0B3E001C01D9225
:1004E000A434B207E1F712E0CAE5D2E004C02197D4
:1004F000FE010E94A90EC935D107C9F70E94090C57
:100500000C94ED130C940000CF92DF92EF92FF92C7
:100510000F931F93CF93DF936C017A018B01C0E09F
:10052000D0E0CE15DF0589F0D8016D918D01D6019F
:10053000ED91FC910190F081E02DC6010995892B88
:1005400011F47E0102C02196ECCFC701DF91CF915B
:100550001F910F91FF90EF90DF90CF900895089535
:1005600080E090E00895FC01538D448D252F30E00C
:10057000842F90E0821B930B541710F0CF960895B0
:1005800001970895FC01918D828D981761F0828DFD
:10059000DF01A80FB11D5D968C91928D9F5F9F73B7
:1005A000928F90E008958FEF9FEF0895FC01918D59
:1005B000828D981731F0828DE80FF11D858D90E0C6
:1005C00008958FEF9FEF0895FC01918D228D892F63
:1005D00090E0805C9F4F821B91098F73992708954B
:1005E0008FE993E00E94E40221E0892B09F420E0E6
:1005F000822F0895FC01848DDF01A80FB11DA35A3D
:10060000BF4F2C91848D90E001968F739927848F32
:10061000A689B7892C93A089B1898C9180648C9329
:10062000938D848D981306C00288F389E02D808114
:100630008F7D80830895EF92FF920F931F93CF9346
:10064000DF93EC0181E0888F9B8D8C8D981305C022
:10065000E889F989808185FD24C0F62E0B8D10E094
:100660000F5F1F4F0F731127E02E8C8DE8120CC007
:100670000FB607FCFACFE889F989808185FFF5CFAD
:10068000CE010E94FA02F1CF8B8DFE01E80FF11D21
:10069000E35AFF4FF0820B8FEA89FB8980818062E9
:1006A00007C0EE89FF896083E889F98980818064C9
:1006B000808381E090E0DF91CF911F910F91FF90B7
:1006C000EF900895CF93DF93EC01888D8823C9F0D4
:1006D000EA89FB89808185FD05C0A889B9898C914B
:1006E00086FD0FC00FB607FCF5CF808185FFF2CFE6
:1006F000A889B9898C9185FFEDCFCE010E94FA02BD
:10070000E7CFDF91CF91089580E090E0892B29F029
:100710000E94F00281110C94000008950E94C70FFE
:10072000EF92FF920F931F93CF93DF93CDB7DEB776
:10073000CD52D1400FB6F894DEBF0FBECDBF8FE9CA
:1007400093E00E94E402892B09F46AC3CE0101966A
:100750007C0100E010E02FB7F89480919B0390910A
:100760009C03A0919D03B0919E032FBF8093A7038C
:100770009093A803A093A903B093AA03E0919F03C9
:10078000F091A0030284F385E02D8FE993E00995B1
:1007900097FD0AC0F70181937F010F5F1F4F0C3255
:1007A000F1E01F07C1F624C02FB7F89480919B0396
:1007B00090919C03A0919D03B0919E032FBF409107
:1007C000A7035091A8036091A9037091AA03841B09
:1007D000950BA60BB70B4091A3035091A403609116
:1007E000A5037091A60384179507A607B70730F2F3
:1007F000E1E0F0E0EC0FFD1FE00FF11D108282E15F
:1008000091E00E94AA08CE0101960E94AA080E94C7
:10081000CB0863E271E0CE0101960E941310909321
:1008200099038093980363E271E080E090E00E9476
:100830001310909397038093960363E271E080E036
:1008400090E00E941310909395038093940363E2C9
:1008500071E080E090E00E941310909393038093E6
:1008600092036AE070E080E090E00E94850B65E210
:1008700071E080919803909199030E9413109093D6
:1008800091038093900365E271E080E090E00E9424
:10089000131090938F0380938E0365E271E080E0E4
:1008A00090E00E94131090938D0380938C030E941C
:1008B000EC0F0E94C11220E034E244E759E40E94A8
:1008C0001C0F609388037093890380938A0390932D
:1008D0008B0365E271E080E090E00E94131090933A
:1008E0008703809386030E94EC0F0E94C11220E0D0
:1008F00034E244E759E40E941C0F60938203709332
:100900008303809384039093850308E713E022E038
:1009100040E00E94CC0F6091880370918903809120
:100920008A0390918B030EE613E022E040E00E94E0
:10093000CC0F65E271E080E090E00E94131090938C
:100940006D0380936C0365E271E080E090E00E94AB
:10095000131090936B0380936A03FC0101900020B5
:10096000E9F7329710820E94EC0F0E94C11220E03A
:1009700030E048EC52E40E941C0F609366037093D1
:100980006703809368039093690387E291E00E9474
:10099000AA0880919003909191030E94AA080E9456
:1009A000CB0881E491E00E94AA0880918E03909187
:1009B0008F030E94AA080E94CB088BE591E00E9459
:1009C000AA08609188037091890380918A039091AD
:1009D0008B030E94DB080E94CB088DE691E00E9409
:1009E000AA0860918203709183038091840390919F
:1009F00085030E94DB080E94CB088FE791E00E94EC
:100A0000AA0880916C0390916D030E94AA080E942D
:100A1000CB0881E991E00E94AA0860916603709179
:100A2000670380916803909169030E94DB080E942C
:100A3000CB086AE070E080E090E00E94850B65E200
:100A400071E080919603909197030E941310909308
:100A500065038093640365E271E080E090E00E94AA
:100A60001310909363038093620365E271E080E06A
:100A700090E00E94131090936103809360030E94A2
:100A8000EC0F0E94C11220E034E244E759E40E94D6
:100A90001C0F60935C0370935D0380935E039093DF
:100AA0005F0365E271E080E090E00E941310909394
:100AB0005B0380935A030E94EC0F0E94C11220E056
:100AC00034E244E759E40E941C0F6093560370938C
:100AD000570380935803909359030CE413E022E0EA
:100AE00040E00E94CC0F60915C0370915D038091A7
:100AF0005E0390915F0302E413E022E040E00E9475
:100B0000CC0F65E271E080E090E00E9413109093BA
:100B100041038093400365E271E080E090E00E9431
:100B2000131090933F0380933E03FC01019000203B
:100B3000E9F7329710820E94EC0F0E94C11220E068
:100B400030E048EC52E40E941C0F60933A0370932B
:100B50003B0380933C0390933D038BEA91E00E941A
:100B6000AA0880916403909165030E94AA080E94DC
:100B7000CB0885EC91E00E94AA08809162039091D5
:100B800063030E94AA080E94CB088FED91E00E94A7
:100B9000AA0860915C0370915D0380915E0390915F
:100BA0005F030E94DB080E94CB0881EF91E00E9466
:100BB000AA08609156037091570380915803909151
:100BC00059030E94DB080E94CB0883E092E00E9458
:100BD000AA0880914003909141030E94AA080E94B4
:100BE000CB0885E192E00E94AA0860913A037091D7
:100BF0003B0380913C0390913D030E94DB080E94DF
:100C0000CB086AE070E080E090E00E94850B65E22E
:100C100071E080919403909195030E94131090933A
:100C200039038093380365E271E080E090E00E9430
:100C30001310909337038093360365E271E080E0F0
:100C400090E00E94131090933503809334030E9428
:100C5000EC0F0E94C11220E034E244E759E40E9404
:100C60001C0F609330037093310380933203909391
:100C7000330365E271E080E090E00E9413109093EE
:100C80002F0380932E030E94EC0F0E94C11220E0DC
:100C900034E244E759E40E941C0F60932A037093E6
:100CA0002B0380932C0390932D0300E213E022E0AA
:100CB00040E00E94CC0F609130037091310380912D
:100CC00032039091330306E113E022E040E00E94FA
:100CD000CC0F65E271E080E090E00E9413109093E9
:100CE00015038093140365E271E080E090E00E94B8
:100CF00013109093130380931203FC0101900020C2
:100D0000E9F7329710820E94EC0F0E94C11220E096
:100D100030E048EC52E40E941C0F60930E03709385
:100D20000F0380931003909311038FE292E00E94CF
:100D3000AA0880913803909139030E94AA080E9462
:100D4000CB0889E492E00E94AA0880913603909132
:100D500037030E94AA080E94CB0883E692E00E9413
:100D6000AA08609130037091310380913203909111
:100D700033030E94DB080E94CB0885E792E00E94C3
:100D8000AA0860912A0370912B0380912C03909103
:100D90002D030E94DB080E94CB0887E892E00E94A6
:100DA000AA0880911403909115030E94AA080E943A
:100DB000CB0889E992E00E94AA0860910E03709125
:100DC0000F0380911003909111030E94DB080E9491
:100DD000CB086AE070E080E090E00E94850B65E25D
:100DE00071E080919203909193030E94131090936D
:100DF0000D0380930C0383EB92E00E94AA0880917C
:100E00000C0390910D030E94AA080E94CB086AE08F
:100E100070E080E090E00E94850B0E94D8098FCCA2
:100E20008091980390919903892BD1F14AE050E089
:100E30006AE070E080918E0390918F030E94960A81
:100E40008EE190E00E94700B20E030E048E453E433
:100E500060916603709167038091680390916903C4
:100E60000E9420130E948E0F655F7F4F00EE17E0F7
:100E700022E330E04FE150E08BE090E00E940C0A6A
:100E800042E350E06AE070E088E793E00E94960A4F
:100E900042E350E068EC70E080EC92E00E94960A39
:100EA0008091960390919703892B91F146E450E04D
:100EB0006AE070E080916203909163030E94960A59
:100EC0008AE590E00E94700B20E030E048E453E4B3
:100ED00060913A0370913B0380913C0390913D03F4
:100EE0000E9420130E948E0F655F7F4F00EE17E077
:100EF0002EE630E04BE550E08BE090E00E940C0ADB
:100F00004EE650E06AE070E08CE493E00E94960ABE
:100F10008091940390919503892B91F142E850E0E0
:100F20006AE070E080913603909137030E94960A40
:100F300086E990E00E94700B20E030E048E453E442
:100F400060910E0370910F03809110039091110333
:100F50000E9420130E948E0F655F7F4F00EE17E006
:100F60002AEA30E047E950E08BE090E00E940C0A6A
:100F70004AEA50E06AE070E080E293E00E94960A5C
:100F800080910C0390910D03009731F04CE251E0F9
:100F90006AE070E00E94960AC35DDE4F0FB6F894D7
:100FA000DEBF0FBECDBFDF91CF911F910F91FF909C
:100FB000EF9008951F920F920FB60F9211242F9366
:100FC0003F934F935F936F937F938F939F93AF93D1
:100FD000BF93EF93FF938FE993E00E94FA02FF9192
:100FE000EF91BF91AF919F918F917F916F915F91A1
:100FF0004F913F912F910F900FBE0F901F9018951A
:101000001F920F920FB60F9211242F938F939F93DD
:10101000EF93FF93E091AF03F091B0038081E091F3
:10102000B503F091B60382FD12C090818091B803A0
:101030008F5F8F732091B903821751F0E091B8034D
:10104000F0E0E156FC4F958F8093B80301C080819A
:10105000FF91EF919F918F912F910F900FBE0F9065
:101060001F9018953FB7F89480913E0490913F04EB
:10107000A0914004B091410426B5A89B05C02F3F24
:1010800019F00196A11DB11D3FBFBA2FA92F982FAE
:101090008827820F911DA11DB11DBC01CD0142E029
:1010A000660F771F881F991F4A95D1F708950097FB
:1010B00069F0FC0101900020E9F73197AF01481B6E
:1010C000590BBC018FE993E00C94840280E090E01E
:1010D00008958F929F92AF92BF920F931F93CF93D9
:1010E000DF93CDB7DEB7A1970FB6F894DEBF0FBE82
:1010F000CDBF19A2423008F44AE08E010F5D1F4FA8
:10110000842E912CA12CB12CA50194010E94870E54
:10111000E62FB901CA0101501109EA3014F4E05D6B
:1011200001C0E95CD801EC93232B242B252B61F71C
:10113000C8010E945708A1960FB6F894DEBF0FBEF3
:10114000CDBFDF91CF911F910F91BF90AF909F9036
:101150008F9008950C94570890E0FC01EC55FC4FDB
:101160002491FC01E057FC4F8491882399F090E092
:10117000880F991FFC01EA57FC4FA591B491FC011F
:10118000E458FC4F859194918FB7F894EC91E22B41
:10119000EC938FBF0895CF93DF938EEF92E00E9480
:1011A0005708EC018DEF92E00E9457088C0F9D1FAD
:1011B000DF91CF9108958F929F92AF92BF92CF927D
:1011C000DF92EF92FF92CF93DF936B017C019B0143
:1011D000AC010E94C20F882319F080E093E027C081
:1011E00046015701E894B7F82FEF3FEF4FE75FE76D
:1011F000C501B4010E94C20F81110DC02FEF3FEF56
:101200004FE75FE7C501B4010E94BA1218161CF43B
:1012100084E093E00CC02FEF3FEF4FE75FE4C7019E
:10122000B6010E94BD0F181674F488E093E0DF91B8
:10123000CF91FF90EF90DF90CF90BF90AF909F90B5
:101240008F900C9457082FEF3FEF4FE75FECC701EB
:10125000B6010E94BA1287FDE8CF20E030E0A90174
:10126000C701B6010E94BA1287FF11C0E0919F0327
:10127000F091A0030190F081E02D6DE28FE993E001
:101280000995EC01F7FAF094F7F8F09402C0C0E089
:10129000D0E02AE037ED43EA5BE3C701B6010E94E4
:1012A000B00E4B015C010E948E0F6B017C010E940D
:1012B000BF129B01AC01C501B4010E94AF0E4B01EE
:1012C0005C014AE0C701B6010E946908C80FD91F36
:1012D000E0919F03F091A0030190F081E02D6EE278
:1012E0008FE993E00995C80FD91F20E030E040E274
:1012F00051E4C501B4010E9420134B015C010E941E
:101300008E0F6B01E12CF12C4AE0C701B6010E945F
:101310006908C80FD91FC701B6010E94BF129B01FF
:10132000AC01C501B4010E94AF0E20E030E040E204
:1013300051E40E9420130E948E0F80E090E04AE06A
:101340000E9469088C0F9D1FDF91CF91FF90EF9055
:10135000DF90CF90BF90AF909F908F9008958EBDFB
:1013600000000DB407FEFDCF8EB50895CF93C82FB2
:10137000569A5E9A559A5D98892F0E94AF098C2FD4
:101380000E94AF09559A5D9ACF910895569A5E9A38
:10139000559A5D980E94AF09559A5D9A0895569A9C
:1013A0005E98559A5D980E94AF09559A5D9A089586
:1013B000CF93DF938AE20E94CF0980E090E00E9401
:1013C000B6098FEE90E00E94B6098BE20E94CF0929
:1013D00080E090E00E94B6098FE391E00E94B60998
:1013E0008CE20E94CF09569A5E9A559A5D98C0E0A9
:1013F000D6E980E00E94AF0980E00E94AF0980E05A
:101400000E94AF0980E00E94AF09219791F7559A99
:101410005D9ADF91CF9108954F925F926F927F9284
:10142000AF92BF92CF92DF92EF92FF920F931F93F2
:10143000CF93DF936817790740F47C01E626F726FF
:101440006E257F25CB018E259F252417350730F487
:101450004227532724273527422753277C0180EF33
:10146000E816F10418F0EFEEEE2EF12C6B01603F60
:10147000710518F09FEEC92ED12CEA01403451407D
:1014800010F0CFE3D1E059012034314020F08FE358
:10149000A82EBB24B394D6011196AE19BF099501AD
:1014A0002F5F3F4F2C1B3D0B0E94DE132B013C0195
:1014B0008AE20E94CF09C7010E94B609C6010E94B4
:1014C000B6098BE20E94CF09CE010E94B609C50180
:1014D0000E94B6098CE20E94CF09569A5E9A559AEC
:1014E0005D98C12CD12C7601C414D504E604F70410
:1014F00061F0812F0E94AF09802F0E94AF098FEF0A
:10150000C81AD80AE80AF80AEFCF559A5D9ADF910F
:10151000CF911F910F91FF90EF90DF90CF90BF90F0
:10152000AF907F906F905F904F9008952F923F9271
:101530004F925F926F927F928F929F92AF92BF92E3
:10154000CF92DF92EF92FF920F931F93CF93DF938F
:1015500000D000D000D0CDB7DEB77E836D834B8343
:101560005C832C01F20181912F01882309F44FC083
:1015700090EE980F903608F08FE328E0829FC0012C
:101580001124AD80BE80E12CF12CDC01BA95BA8328
:10159000A983E981FA81EE0DFF1DE458FF4FE49124
:1015A0003501B2E06B0E711C4B815C81C12CD12CDA
:1015B0002E2E312CFA0132964F01C1010C2C02C0A3
:1015C000959587950A94E2F780FF07C00FEF1FEF0C
:1015D0009F01B301C5010E940C0AFFEFCF1ADF0A79
:1015E000A40128E0C216D10429F73FEFE31AF30A59
:1015F000530188E0E816F10461F6AD81BE81AF3E8B
:10160000B10508F0AFCF1C96BE83AD83ABCF269655
:101610000FB6F894DEBF0FBECDBFDF91CF911F9103
:101620000F91FF90EF90DF90CF90BF90AF909F9081
:101630008F907F906F905F904F903F902F90089584
:101640000F931F93CF93DF938C01EB018AE20E94EB
:10165000CF09C8010E94B609C8010E94B6098BE2F1
:101660000E94CF09CE010E94B609CE0144960E9485
:10167000B6098CE20E94CF09C5E1D0E0219729F09C
:101680008FEF9FEF0E94B609F9CFDF91CF911F91A5
:101690000F910895CF93DF93EC018AE20E94CF0966
:1016A0008AE090E00E94B60982ED90E00E94B609BF
:1016B0008BE20E94CF09CE010E94B609CE010E94A2
:1016C000B6098CE20E94CF09C9ECD0E0219729F03D
:1016D0008FEF9FEF0E94B609F9CFDF91CF91089568
:1016E000CF93DF93EC010E944A0BCE0144960E94F7
:1016F0004A0BBE018AE090E00E94200BBE0182ED01
:1017000090E0DF91CF910C94200B8F929F92AF923B
:10171000BF92CF92DF92EF92FF926B017C010E9409
:1017200032084B015C01C114D104E104F104F1F071
:101730000E943208DC01CB0188199909AA09BB096A
:10174000883E9340A105B10570F321E0C21AD1088B
:10175000E108F10888EE880E83E0981EA11CB11CF8
:10176000C114D104E104F10419F7DDCFFF90EF902B
:10177000DF90CF90BF90AF909F908F9008951F9271
:101780000F920FB60F9211242F933F938F939F9335
:10179000AF93BF9380919B0390919C03A0919D0375
:1017A000B0919E0330913D0423E0230F2D3720F4A8
:1017B0000196A11DB11D05C026E8230F0296A11DAB
:1017C000B11D20933D0480939B0390939C03A093B1
:1017D0009D03B0939E0380913E0490913F04A0919D
:1017E0004004B09141040196A11DB11D80933E04B7
:1017F00090933F04A0934004B0934104BF91AF91F4
:101800009F918F913F912F910F900FBE0F901F903E
:101810001895CF93DF9300D000D000D0CDB7DEB7BE
:10182000789484B5826084BD84B5816084BD85B5BB
:10183000826085BD85B5816085BD80916E008160C7
:1018400080936E001092810080918100826080936D
:10185000810080918100816080938100809180006F
:101860008160809380008091B10084608093B1009A
:101870008091B00081608093B00080917A00846094
:1018800080937A0080917A00826080937A008091C0
:101890007A00816080937A0080917A0080688093DA
:1018A0007A001092C100E091AF03F091B00382E0A2
:1018B0008083E091AB03F091AC031082E091AD0323
:1018C000F091AE038FEC80831092B703E091B303E5
:1018D000F091B40386E08083E091B103F091B2030C
:1018E000808180618083E091B103F091B2038081B7
:1018F00088608083E091B103F091B20380818068B9
:101900008083E091B103F091B20380818F7D808369
:10191000579A5F9A1FB7F89480919A03811163C018
:101920008AE993E0FC0124914EEA53E0FA016491C4
:1019300030E0220F331F2A573C4FF901A591B49193
:101940002C91622309F040C0E2E7F0E02491FA0113
:101950004491FC0194919923B9F1222339F1233068
:1019600091F038F42130A9F0223001F584B58F7D53
:1019700012C0273091F02830A1F02430B9F48091C2
:1019800080008F7D03C0809180008F7780938000DE
:101990000DC084B58F7784BD09C08091B0008F776A
:1019A00003C08091B0008F7D8093B000E92FF0E0FC
:1019B000EE0FFF1FE458FC4FA591B4918FB7F89438
:1019C0009C91492B4C938FBF8AE00E94AC088CB548
:1019D00080618CBD8CB580648CBD8DE00E94AC08AC
:1019E0008BE00E94AC0880919A038F5F80939A03EA
:1019F0001FBF559A5D9A569A5E9A03E083E9B82E06
:101A000091E4A92E7E01F4E0EF0EF11C23E0922E6A
:101A10009E0C1982BA82AB82CE0101966C0137010D
:101A200011E18824839489ED0E94CF09812F0E94BF
:101A3000C609569A5E98559A5D9883ED0E94AF0943
:101A4000569A5E9A80E00E94AF09559A5D9AF3011A
:101A500081933F01F60191916F018913812C1F5FE2
:101A6000143109F7811014C082EC92E00E94AA0898
:101A70006701F60161916F0170E080E090E040E164
:101A80000E9469089C10F5CF8DEF92E00E945708E4
:101A9000015009F0BECF64EF71E080E090E00E9459
:101AA000850B81E00E94CF0968EC70E080E090E057
:101AB0000E94850B8FEC0E94CF0980E00E94C6092E
:101AC0008BE80E94C60980E30E94C6098DEE0E9441
:101AD000CF0987E60E94C60983E00E94C60982E119
:101AE0000E94C60981E80E94C60988EE0E94CF09BB
:101AF00085E80E94C60980E10E94C6098AE70E9423
:101B0000C6098BEC0E94CF0989E30E94C6098CE2CA
:101B10000E94C60980E00E94C60984E30E94C609AB
:101B200082E00E94C60987EF0E94CF0980E20E94EE
:101B3000C6098AEE0E94CF0980E00E94C60980E0B3
:101B40000E94C60980EC0E94CF098BE10E94C60961
:101B500081EC0E94CF0980E10E94C60985EC0E94B9
:101B6000CF098FE30E94C6098CE30E94C60987EC67
:101B70000E94CF0987EB0E94C60986E30E94CF0925
:101B800088E00E94C6098AE30E94CF0985E50E9489
:101B9000C60981EB0E94CF0980E00E94C6098BE153
:101BA0000E94C60986EB0E94CF098AE00E94C609FE
:101BB00082EA0E94C60982EF0E94CF0980E00E945B
:101BC000C60986E20E94CF0981E00E94C60980EE24
:101BD0000E94CF098FE00E94C6098AE20E94C609CE
:101BE00088E20E94C60988E00E94C6098EE00E9431
:101BF000C60988E00E94C60984E50E94C60989EAF0
:101C00000E94C60983E40E94C6098AE00E94C609B0
:101C10008FE00E94C60980E00E94C60980E00E9411
:101C2000C60980E00E94C60980E00E94C60981EED4
:101C30000E94CF0980E00E94C60985E10E94C60982
:101C400087E10E94C60987E00E94C60981E10E94DF
:101C5000C60986E00E94C6098BE20E94C60986E595
:101C60000E94C6098CE30E94C60985E00E94C6094D
:101C700080E10E94C6098FE00E94C6098FE30E949E
:101C8000C6098FE30E94C6098FE00E94C60981E160
:101C90000E94CF0968E770E080E090E00E94850B29
:101CA00089E20E94CF090E94D8090E9490030E94F5
:101CB0008403FBCFEFE9F3E01382128288EE93E016
:101CC000A0E0B0E084839583A683B78384E091E0AD
:101CD0009183808385EC90E09587848784EC90E005
:101CE0009787868780EC90E0918B808B81EC90E0E9
:101CF000938B828B82EC90E0958B848B86EC90E0CA
:101D0000978B868B118E128E138E148E0895A1E2FE
:101D10001A2EAA1BBB1BFD010DC0AA1FBB1FEE1F65
:101D2000FF1FA217B307E407F50720F0A21BB30BB0
:101D3000E40BF50B661F771F881F991F1A9469F72C
:101D400060957095809590959B01AC01BD01CF0188
:101D50000895EE0FFF1F0590F491E02D099450585F
:101D6000BB27AA270E94C70E0C94A4130E949613A7
:101D700038F00E949D1320F039F49F3F19F426F4A7
:101D80000C9493130EF4E095E7FB0C948D13E92F5C
:101D90000E94B51358F3BA176207730784079507B3
:101DA00020F079F4A6F50C94D7130EF4E0950B2EE1
:101DB000BA2FA02D0B01B90190010C01CA01A0019D
:101DC0001124FF27591B99F0593F50F4503E68F1F8
:101DD0001A16F040A22F232F342F4427585FF3CF39
:101DE000469537952795A795F0405395C9F77EF40A
:101DF0001F16BA0B620B730B840BBAF09150A1F053
:101E0000FF0FBB1F661F771F881FC2F70EC0BA0FD8
:101E1000621F731F841F48F4879577956795B79560
:101E2000F7959E3F08F0B0CF9395880F08F099275B
:101E3000EE0F9795879508950E94300F0C94A41388
:101E40000E949D1358F00E94961340F029F45F3FC2
:101E500029F00C948D1351110C94D8130C949313F6
:101E60000E94B51368F39923B1F3552391F3951BA1
:101E7000550BBB27AA2762177307840738F09F5FAB
:101E80005F4F220F331F441FAA1FA9F335D00E2E18
:101E90003AF0E0E832D091505040E695001CCAF785
:101EA0002BD0FE2F29D0660F771F881FBB1F261748
:101EB00037074807AB07B0E809F0BB0B802DBF011F
:101EC000FF2793585F4F3AF09E3F510578F00C94EE
:101ED0008D130C94D8135F3FE4F3983ED4F38695AA
:101EE00077956795B795F7959F5FC9F7880F911D0F
:101EF0009695879597F90895E1E0660F771F881FFB
:101F0000BB1F621773078407BA0720F0621B730BAD
:101F1000840BBA0BEE1F88F7E09508950E94BD135D
:101F200088F09F5798F0B92F9927B751B0F0E1F09A
:101F3000660F771F881F991F1AF0BA95C9F714C04A
:101F4000B13091F00E94D713B1E008950C94D713EB
:101F5000672F782F8827B85F39F0B93FCCF3869583
:101F600077956795B395D9F73EF4909580957095E0
:101F700061957F4F8F4F9F4F08950E94FC1208F488
:101F80008FEF08950E94FC12880B990B089581E051
:101F900090E0F8940C94ED13EF920F931F93CF936E
:101FA000DF93E80147FD02C034E001C034E1E42FD3
:101FB000440FFF0BF7FF03C0F195E195F109E32E04
:101FC000022F2E2FAE010E945410CE01DF91CF912F
:101FD0001F910F91EF9008951F93FC019927882777
:101FE000BC01E89411911032E9F3193010F01E3061
:101FF000C8F31B3251F01D3249F4689406C00E94A8
:102000003F10610F711D811D911D119110531A30E8
:10201000B0F33EF490958095709561957F4F8F4F0A
:102020009F4F1F91089542E454E00E9418100895B4
:10203000FA01A191B081009719F41097E1F0CD0158
:10204000DC01CD010D90002011F4C00113C0FB0193
:102050002191222319F02015D9F7F3CFFB0121910B
:10206000201519F41E92119606C02223C1F70D9077
:102070000020A1F7D001FA01A193B0830895592F50
:10208000482F372F262F660F771F881F991F660F3F
:10209000771F881F991F620F731F841F951F660F7C
:1020A000771F881F991F08954F925F926F927F92BA
:1020B0009F92AF92BF92CF92DF92EF92FF920F93D7
:1020C0001F93CF93DF93CDB7DEB729970FB6F89460
:1020D000DEBF0FBECDBF6A01122FB02E2BE320173B
:1020E00020F0FF24F394F00E02C0BCE3FB2E0F2D72
:1020F00027E0AE014F5F5F4F0E94E211AC01898182
:10210000982F9970913031F0E1FC06C0E0FE06C0D6
:1021100090E205C09DE203C09BE201C090E0EE2D7D
:10212000E07183FF3CC0911102C083E001C084E0F4
:10213000811718F4212F281B01C020E0E1110BC0EA
:10214000F601822F30E2882319F031938150FBCFC2
:10215000C20ED11C20E0992329F0D6019C93F601F0
:1021600031966F01C6010396E2FE0AC03EE4D60135
:102170003C9341E411964C93119712963C9306C000
:102180003EE6F601308341E641833283FC01322F83
:1021900040E2332309F442C041933150FACF82FF29
:1021A00044C0911102C083E001C084E0811718F49B
:1021B000212F281B01C020E0E1110BC0F601822F66
:1021C00030E2882319F031938150FBCFC20ED11C2D
:1021D00020E0992329F0D6019C93F60131966F01F6
:1021E000C6010396E2FE0BC039E4D6013C933EE4FF
:1021F00011963C93119736E412963C9307C039E64A
:10220000F60130833EE6318336E63283FC01322F1D
:1022100040E2332319F041933150FBCFFC01E20F30
:10222000F11D10828EEF9FEFB7C0F1E0911101C058
:10223000F0E06F2F70E01416150624F49A012F5F5A
:102240003F4F02C021E030E0260F371FBB2029F0AE
:102250006B2D70E06F5F7F4F02C060E070E0260F73
:10226000371F612F70E0261737071CF4121B212F30
:1022700001C020E03E2D387159F4D601322F60E2C2
:10228000332319F06D933150FBCFC20ED11C20E0E7
:10229000FF2331F0D6019C93B6016F5F7F4F6B0136
:1022A000E1110BC0F601922F30E3992319F031931D
:1022B0009150FBCFC20ED11C20E09F2D940F3A818C
:1022C000782F7071A72E84FF03C0313309F4915029
:1022D000191624F4993018F098E001C091E0E42F29
:1022E000852F57FF02C0E0E080E06E2F782FE0E0FE
:1022F000F0E0AEE29A2E3A01691A71082A01461AF4
:10230000570A0B2D10E01195019511096F3F8FEFC2
:10231000780729F4D6019C92C60101966C014617F4
:10232000570784F0661677066CF47F01E40CF51C01
:10233000A1E0B0E0AC0FBD1FEA0EFB1ED701119665
:10234000BC9002C090E3B92E615071093196C6016C
:1023500001967C016017710724F0D601BC926C01D4
:10236000D5CF6417750741F4363320F4353321F4A3
:10237000A11002C081E3B82EF601B082F701822FCE
:1023800090E2882319F091938150FBCFF701E20F7F
:10239000F11D108280E090E029960FB6F894DEBF20
:1023A0000FBECDBFDF91CF911F910F91FF90EF90A6
:1023B000DF90CF90BF90AF909F907F906F905F9095
:1023C0004F900895283008F027E03327DA01990F5D
:1023D000311D87FD916000966105710539F4326009
:1023E0002E5F3D9330E32A95E1F708959F3F30F04B
:1023F00080387105610509F03C5F3C5F3D93913089
:1024000008F08068911DDF93CF931F930F93FF9285
:10241000EF92192F987F9695E92F96959695E90F4B
:10242000FF27EE5EFB4F99273327EE24FF24A701F9
:10243000E70105900894079428F4360FE71EF81E6C
:10244000491F511D660F771F881F991F0694A1F71A
:102450000590079428F4E70EF81E491F561FC11D6A
:10246000770F881F991F661F0694A1F705900794A0
:1024700028F4F80E491F561FC71FD11D880F991F3A
:10248000661F771F0694A1F70590079420F4490F63
:10249000561FC71FD81F990F661F771F881F0694E6
:1024A000A9F784911095177041F0D695C795579567
:1024B0004795F794E7941A95C1F7E8EBF3E0689431
:1024C0001590159135916591959105907FE27395E1
:1024D000E118F10A430B560BC90BD009C0F7E10C08
:1024E000F11E431F561FC91FD01D7EF4703311F417
:1024F0008A95E6CFE894015030F0080F0AF40027DF
:10250000021708F4202F2395022F7A3328F079E35D
:102510007D932A95E9F710C07D932A9589F6069454
:1025200097956795379517951794E118F10A430B1E
:10253000560BC90BD00998F023957E9173957A3389
:1025400008F070E37C932013B8F77E9170617D935F
:1025500030F0839571E37D9370E32A95E1F71124C0
:10256000EF90FF900F911F91CF91DF91992787FDF9
:10257000909508950E94FC1208F481E00895E89473
:1025800009C097FB3EF490958095709561957F4FBB
:102590008F4F9F4F9923A9F0F92F96E9BB27939569
:1025A000F695879577956795B795F111F8CFFAF479
:1025B000BB0F11F460FF1BC06F5F7F4F8F4F9F4FAA
:1025C00016C0882311F096E911C0772321F09EE808
:1025D000872F762F05C0662371F096E8862F70E06E
:1025E00060E02AF09A95660F771F881FDAF7880F48
:1025F0009695879597F90895990F0008550FAA0B9E
:10260000E0E8FEEF16161706E807F907C0F0121605
:102610001306E407F50798F0621B730B840B950B08
:1026200039F40A2661F0232B242B252B21F408955D
:102630000A2609F4A140A6958FEF811D811D0895FA
:102640000E9433130C94A4130E94961338F00E9436
:102650009D1320F0952311F00C948D130C9493137B
:1026600011240C94D8130E94B51370F3959FC1F3F5
:10267000950F50E0551F629FF001729FBB27F00D30
:10268000B11D639FAA27F00DB11DAA1F649F662785
:10269000B00DA11D661F829F2227B00DA11D621FD4
:1026A000739FB00DA11D621F839FA00D611D221F8E
:1026B000749F3327A00D611D231F849F600D211D72
:1026C000822F762F6A2F11249F5750409AF0F1F0F5
:1026D00088234AF0EE0FFF1FBB1F661F771F881F5E
:1026E00091505040A9F79E3F510580F00C948D13F6
:1026F0000C94D8135F3FE4F3983ED4F38695779516
:102700006795B795F795E7959F5FC1F7FE2B880F03
:10271000911D9695879597F9089597F99F6780E899
:1027200070E060E008959FEF80EC089500240A9423
:102730001616170618060906089500240A9412169C
:102740001306140605060895092E0394000C11F4CF
:10275000882352F0BB0F40F4BF2B11F460FF04C07C
:102760006F5F7F4F8F4F9F4F089557FD9058440FD5
:10277000551F59F05F3F71F04795880F97FB991FE0
:1027800061F09F3F79F0879508951216130614069D
:10279000551FF2CF4695F1DF08C01616170618062A
:1027A000991FF1CF86957105610508940895E89405
:1027B000BB2766277727CB0197F90895A29FB00121
:1027C000B39FC001A39F700D811D1124911DB29F65
:0E27D000700D811D1124911D0895F894FFCF06
:1027DE00000000001B038402B3026203E402C20283
:1027EE00D602546F74616C20696E707574206973B3
:1027FE003A200026003A00446576696365206E61D2
:10280E006D6520666F7220647269766520313A209C
:10281E00004D6F756E7420706F696E7420666F72E6
:10282E0020647269766520313A200053697A6520FA
:10283E006F6620647269766520313A2000557365A3
:10284E0064206F6E20647269766520313A200046EE
:10285E00726565206F6E20647269766520313A204C
:10286E000050657263656E742075736564206F6EBB
:10287E0020647269766520313A200044657669637A
:10288E0065206E616D6520666F7220647269766573
:10289E0020323A20004D6F756E7420706F696E7421
:1028AE0020666F7220647269766520323A2000537A
:1028BE00697A65206F6620647269766520323A20E7
:1028CE000055736564206F6E2064726976652032E0
:1028DE003A200046726565206F6E206472697665D7
:1028EE0020323A200050657263656E7420757365F0
:1028FE0064206F6E20647269766520323A2000443F
:10290E006576696365206E616D6520666F72206401
:10291E007269766520333A20004D6F756E742070A3
:10292E006F696E7420666F722064726976652033EB
:10293E003A200053697A65206F6620647269766565
:10294E0020333A200055736564206F6E20647269DF
:10295E00766520333A200046726565206F6E2064DE
:10296E007269766520333A200050657263656E7425
:10297E002075736564206F6E2064726976652033EE
:10298E003A2000495020616464726573733A2000E6
:10299E002F005265616420544654204944206661DC
:1029AE00696C65642C2049442073686F756C6420D3
:1029BE00626520307830393334312C2062757420C2
:1029CE0072656164204944203D203078000D0A0074
:0C29DE006E616E00696E66006F76660028
:00000001FF
