:100000000C945D000C9485000C9485000C94850084
:100010000C9485000C9485000C9485000C9485004C
:100020000C9485000C9485000C9485000C9485003C
:100030000C9485000C9485000C9485000C9485002C
:100040000C94F2030C9485000C94C0030C949A0356
:100050000C9485000C9485000C9485000C9485000C
:100060000C9485000C94850000000008000201003B
:100070000003040700000000000000000000000072
:10008000250028002B0000000000240027002A0083
:10009000040404040404040402020202020203032E
:1000A0000303030301020408102040800102040836
:1000B00010200102040810203C0411241FBECFEFC1
:1000C000D8E0DEBFCDBF11E0A0E0B1E0EAEFFDE097
:1000D00002C005900D92A035B107D9F721E0A0E547
:1000E000B1E001C01D92A73FB207E1F710E0CDE5F6
:1000F000D0E004C02197FE010E94F006CC35D10764
:10010000C9F70E9469040C94FB060C94000090E06F
:10011000FC01EC55FF4F2491FC01E057FF4F849107
:10012000882399F090E0880F991FFC01EA57FF4F50
:10013000A591B491FC01E458FF4F859194918FB73C
:10014000F894EC91E22BEC938FBF0895FC01538D52
:10015000448D252F30E0842F90E0821B930B5417A1
:1001600010F0CF96089501970895FC01918D828D2E
:10017000981761F0828DDF01A80FB11D5D968C91FB
:10018000928D9F5F9F73928F90E008958FEF9FEF06
:100190000895FC01918D828D981731F0828DE80FC2
:1001A000F11D858D90E008958FEF9FEF0895FC017C
:1001B000918D228D892F90E0805C9F4F821B910949
:1001C0008F7399270895FC01848DDF01A80FB11D5D
:1001D000A35ABF4F2C91848D90E001968F7399277D
:1001E000848FA689B7892C93A089B1898C9180646A
:1001F0008C93938D848D981306C00288F389E02D2B
:1002000080818F7D80830895EF92FF920F931F93DB
:10021000CF93DF93EC0181E0888F9B8D8C8D9813B9
:1002200005C0E889F989808185FD24C0F62E0B8DF3
:1002300010E00F5F1F4F0F731127E02E8C8DE81217
:100240000CC00FB607FCFACFE889F989808185FFD9
:10025000F5CFCE010E94E300F1CF8B8DFE01E80FB8
:10026000F11DE35AFF4FF0820B8FEA89FB898081F1
:10027000806207C0EE89FF896083E889F9898081FF
:100280008064808381E090E0DF91CF911F910F9196
:10029000FF90EF900895CF93DF93EC01888D882332
:1002A000C9F0EA89FB89808185FD05C0A889B989E3
:1002B0008C9186FD0FC00FB607FCF5CF808185FFBE
:1002C000F2CFA889B9898C9185FFEDCFCE010E942C
:1002D000E300E7CFDF91CF9108958AE591E00E9496
:1002E000D70021E0892B09F420E0822F089580E0D7
:1002F00090E0892B29F00E946D0181110C9400007F
:100300000895CF92DF92EF92FF920F931F93CF93B6
:10031000DF936C017A018B01C0E0D0E0CE15DF05E0
:1003200089F0D8016D918D01D601ED91FC9101907C
:10033000F081E02DC6010995892B11F47E0102C0E0
:100340002196ECCFC701DF91CF911F910F91FF90C4
:10035000EF90DF90CF900895089580E090E00895A9
:100360008EBD00000DB407FEFDCF8EB50895CF936E
:10037000C82F569A5E9A559A5D98892F0E94B001AF
:100380008C2F0E94B001559A5D9ACF910895569A8C
:100390005E9A559A5D980E94B001559A5D9A0895AB
:1003A000569A5E98559A5D980E94B001559A5D9A4A
:1003B0000895CF92DF92EF92FF920F931F93CF9306
:1003C000DF937C01EB018A0169018AE20E94D0017E
:1003D000C7010E94B701C7010E94B7017E01E00E6C
:1003E000F11E8BE20E94D001CE010E94B701C7012D
:1003F0000E94B7018CE20E94D001C0E0D0E0C0179B
:10040000D10729F0C6010E94B7012196F8CFDF91EC
:10041000CF911F910F91FF90EF90DF90CF900895B3
:100420004F925F926F927F928F929F92AF92BF9204
:10043000CF92DF92EF92FF920F931F93CF93DF93B0
:100440003C014B01C6ECDFEFC12CD12C02EE1FEFBB
:1004500048EC442E512C7601EE0CFF1C9401A701B0
:100460005301AC18BD08B501C201801B910B0E945D
:10047000D9019401A701B501C80188539F4F0E947B
:10048000D901CC16DD06ACF08FEFC81AD80A83E08C
:10049000E80EF11CEC0EFD1E88279927801B910B9E
:1004A0008C159D0539F40C171D0744F0C0E0D0E011
:1004B00001C07E010C171D075CF4C6010F5F1F4FC2
:1004C000E801CC0FDD1F2196CE0DDF1D6C0101C0B0
:1004D000E701101611060CF0BECFDF91CF911F91EE
:1004E0000F91FF90EF90DF90CF90BF90AF909F90D3
:1004F0008F907F906F905F904F900895EF92FF9252
:100500000F931F93CF93DF938C01EB017A018AE263
:100510000E94D001C8010E94B701C8010E94B70122
:100520008BE20E94D001CE010E94B701CE010E9451
:10053000B7018CE20E94D001C701DF91CF911F91DA
:100540000F91FF90EF900C94B7012F923F924F9232
:100550005F926F927F928F929F92AF92BF92CF9253
:10056000DF92EF92FF920F931F93CF93DF932C01B3
:100570006A0100271127061B170BE801CC0FDD1FAE
:100580002296E12CF12C74E6272E312CA601420193
:100590008E0C9F1CB4015101A01AB10AC5010E9422
:1005A0007E02A601B401380184E6680E711CC30105
:1005B0000E947E02A60142018E189F08B401C30169
:1005C0000E947E02A601B401C5010E947E02EC16C3
:1005D000FD06B4F08FEFE81AF80AC701880F991FDB
:1005E00001968C0F9D1F22273327201B310B2E15C0
:1005F0003F0539F40C171D0744F0C0E0D0E001C0FE
:10060000CE010C171D075CF497010F5F1F4FE80127
:10061000CC0FDD1F2196C80FD91F790101C0EC0155
:10062000101611060CF0B2CFDF91CF911F910F91F0
:10063000FF90EF90DF90CF90BF90AF909F908F9002
:100640007F906F905F904F903F902F9008953FB7AD
:10065000F8948091560190915701A0915801B09162
:10066000590126B5A89B05C02F3F19F00196A11D81
:10067000B11D3FBFBA2FA92F982F8827820F911D38
:10068000A11DB11DBC01CD0142E0660F771F881F7F
:10069000991F4A95D1F708958F929F92AF92BF927A
:1006A000CF92DF92EF92FF926B017C010E942703B1
:1006B0004B015C01C114D104E104F104F1F00E948A
:1006C0002703DC01CB0188199909AA09BB09883ED7
:1006D0009340A105B10570F321E0C21AD108E108E9
:1006E000F10888EE880E83E0981EA11CB11CC1148D
:1006F000D104E104F10419F7DDCFFF90EF90DF9012
:10070000CF90BF90AF909F908F900895009769F021
:10071000FC0101900020E9F73197AF01481B590B0C
:10072000BC018AE591E00C94810180E090E008959D
:100730000E94F6061F920F920FB60F9211242F936C
:100740003F934F935F936F937F938F939F93AF9359
:10075000BF93EF93FF938AE591E00E94E300FF913E
:10076000EF91BF91AF919F918F917F916F915F9129
:100770004F913F912F910F900FBE0F901F901895A2
:100780001F920F920FB60F9211242F938F939F9366
:10079000EF93FF93E0916A01F0916B018081E0910A
:1007A0007001F091710182FD12C0908180917301FE
:1007B0008F5F8F7320917401821751F0E091730164
:1007C000F0E0E65AFE4F958F8093730101C080815F
:1007D000FF91EF919F918F912F910F900FBE0F90EE
:1007E0001F9018951F920F920FB60F9211242F93FE
:1007F0003F938F939F93AF93BF93809152019091BA
:100800005301A0915401B09155013091510123E061
:10081000230F2D3720F40196A11DB11D05C026E838
:10082000230F0296A11DB11D209351018093520107
:1008300090935301A0935401B093550180915601B8
:1008400090915701A0915801B09159010196A11DB5
:10085000B11D8093560190935701A0935801B09316
:100860005901BF91AF919F918F913F912F910F901F
:100870000FBE0F901F901895EAE5F1E013821282E7
:1008800088EE93E0A0E0B0E084839583A683B783ED
:1008900084E091E09183808385EC90E09587848764
:1008A00084EC90E09787868780EC90E0918B808B3A
:1008B00081EC90E0938B828B82EC90E0958B848B23
:1008C00086EC90E0978B868B118E128E138E148E91
:1008D0000895CF93DF93CDB7DEB7A7970FB6F894FF
:1008E000DEBF0FBECDBF789484B5826084BD84B571
:1008F000816084BD85B5826085BD85B5816085BD1B
:1009000080916E00816080936E00109281008091D2
:10091000810082608093810080918100816080935A
:100920008100809180008160809380008091B1007F
:1009300084608093B1008091B00081608093B000AA
:1009400080917A00846080937A0080917A0082603E
:1009500080937A0080917A00816080937A00809100
:100960007A00806880937A001092C100579A5F9A4B
:100970001FB7F89480915001811163C08AE990E01B
:10098000FC0124914EEA50E0FA01649130E0220F1C
:10099000331F2A573F4FF901A591B4912C9162233F
:1009A00009F040C0E2E7F0E02491FA014491FC0133
:1009B00094919923B9F1222339F1233091F038F43D
:1009C0002130A9F0223001F584B58F7D12C0273087
:1009D00091F02830A1F02430B9F4809180008F7D0F
:1009E00003C0809180008F77809380000DC084B514
:1009F0008F7784BD09C08091B0008F7703C080914C
:100A0000B0008F7D8093B000E92FF0E0EE0FFF1F64
:100A1000E458FF4FA591B4918FB7F8949C91492B5E
:100A20004C938FBF8AE00E9487008CB580618CBD9B
:100A30008CB580648CBD8DE00E9487008BE00E94A5
:100A40008700809150018F5F809350011FBF559A9E
:100A50005D9A569A5E9A13E003E941E4B42E7E0152
:100A6000F5E2EF0EF11C53E0A52EAE0C1AA20BA37B
:100A7000BCA2CE0182964C01370131E1D32ECC24A9
:100A8000C39489ED0E94D0018D2D0E94C701569A12
:100A90005E98559A5D9883ED0E94B001569A5E9AD1
:100AA00080E00E94B001559A5D9AF30181933F0165
:100AB000F40191914F018913C12CD394F4E1DF1219
:100AC000E0CFC11033C082E191E00E94860367014C
:100AD000F60141916F0150E060E070E019A2FE0163
:100AE000B196DB01CA018F709927AA27BB2724E0A2
:100AF00076956795579547952A95D1F731978A301E
:100B00009105A105B10510F4805D01C0895C808369
:100B1000411551056105710521F7CF010E9486033A
:100B2000AC10D6CF8DE491E00E948603115009F0FD
:100B30009DCF64EF71E080E090E00E944C0381E083
:100B40000E94D00168EC70E080E090E00E944C03CD
:100B50008FEC0E94D00180E00E94C7018BE80E94C8
:100B6000C70180E30E94C7018DEE0E94D00187E695
:100B70000E94C70183E00E94C70182E10E94C70171
:100B800081E80E94C70188EE0E94D00185E80E949A
:100B9000C70180E10E94C7018AE70E94C7018BEC70
:100BA0000E94D00189E30E94C7018CE20E94C70124
:100BB00080E00E94C70184E30E94C70182E00E9496
:100BC000C70187EF0E94D00180E20E94C7018AEE30
:100BD0000E94D00180E00E94C70180E00E94C7010E
:100BE00080EC0E94D0018BE10E94C70181EC0E9441
:100BF000D00180E10E94C70185EC0E94D0018FE303
:100C00000E94C7018CE30E94C70187EC0E94D001BB
:100C100087EB0E94C70186E30E94D00188E00E9412
:100C2000C7018AE30E94D00185E50E94C70181EBDC
:100C30000E94D00180E00E94C7018BE10E94C701A1
:100C400086EB0E94D0018AE00E94C70182EA0E94DE
:100C5000C70182EF0E94D00180E00E94C70186E2B6
:100C60000E94D00181E00E94C70180EE0E94D00165
:100C70008FE00E94C7018AE20E94C70188E20E94B9
:100C8000C70188E00E94C7018EE00E94C70188E08A
:100C90000E94C70184E50E94C70189EA0E94C7013A
:100CA00083E40E94C7018AE00E94C7018FE00E948E
:100CB000C70180E00E94C70180E00E94C70180E078
:100CC0000E94C70180E00E94C70181EE0E94D0010E
:100CD00080E00E94C70185E10E94C70187E10E9470
:100CE000C70187E00E94C70181E10E94C70186E039
:100CF0000E94C7018BE20E94C70186E50E94C701DE
:100D00008CE30E94C70185E00E94C70180E10E9438
:100D1000C7018FE00E94C7018FE30E94C7018FE3E4
:100D20000E94C7018FE00E94C70181E10E94D001AB
:100D300068E770E080E090E00E944C0389E20E9446
:100D4000D0018AE20E94D00180E090E00E94B701C9
:100D50008FEE90E00E94B7018BE20E94D00180E00C
:100D600090E00E94B7018FE391E00E94B7018CE20E
:100D70000E94D001569A5E9A559A5D9800E016E955
:100D800080E00E94B00180E00E94B00180E00E94FB
:100D9000B00180E00E94B0010150110989F7559A15
:100DA0005D9A40EE5FEF6EE170E084E690E00E94B5
:100DB000A5024FEF57E068E270E088EC90E00E94F7
:100DC000A50260E078EF84E690E00E9410026FE1F7
:100DD00070E088EC90E00E9410020E947701FDCF45
:100DE000EE0FFF1F0590F491E02D099481E090E053
:0A0DF000F8940C94FB06F894FFCF72
:100DFA000000000004018101A6004B01D700B500E4
:100E0A00C9005265616420544654204944206661F1
:100E1A00696C65642C2049442073686F756C642082
:100E2A00626520307830393334312C206275742071
:100E3A0072656164204944203D203078000D0A0023
:00000001FF
