:100000000C945A020C9482020C9482020C94820288
:100010000C9482020C9482020C9482020C94820250
:100020000C9482020C9482020C9482020C94820240
:100030000C9482020C9482020C9482020C94820230
:100040000C948C090C9482020C94FC090C94D60933
:100050000C9482020C9482020C9482020C94820210
:100060000C9482020C94820200000008000201003D
:100070000003040700000000000000000000000072
:100080000000000000005F0000000000000007000A
:100090000700000000147F147F14000000242A7F52
:1000A0002A1200000023130864620000003649553C
:1000B000225000000000050300000000001C224147
:1000C000000000000041221C0000000000082A1C63
:1000D0002A0800000008083E0808000000A0600090
:1000E0000000000000080808080800000060600028
:1000F000000000000020100804020000003E5149EA
:10010000453E00000000427F40000000006251496F
:1001100049460000002241494936000000181412E7
:100120007F1000000027454545390000003C4A4942
:1001300049300000000171090503000000364949FB
:100140004936000000064949291E000000003636E5
:10015000000000000000AC6C000000000008142249
:100160004100000000141414141400000041221473
:100170000800000000020151090600000032497920
:10018000413E0000007E0909097E0000007F4949C8
:1001900049360000003E414141220000007F4141BC
:1001A000221C0000007F494949410000007F0909E5
:1001B00009010000003E414151720000007F080823
:1001C000087F00000000417F410000000020404106
:1001D0003F010000007F081422410000007F4040E2
:1001E00040400000007F020C027F0000007F0408F6
:1001F000107F0000003E4141413E0000007F0909A0
:1002000009060000003E4151215E0000007F0919EF
:100210002946000000264949493200000001017FBB
:1002200001010000003F4040403F0000001F20400F
:10023000201F0000003F4038403F000000631408CA
:1002400014630000000304780403000000615149B6
:1002500045430000007F4141000000000002040807
:10026000102000000041417F000000000004020156
:1002700002040000008080808080000000010204F1
:10028000000000000020545454780000007F4844CF
:10029000443800000038444428000000003844443A
:1002A000487F0000003854545418000000087E09AC
:1002B000020000000018A4A4A47C0000007F080431
:1002C0000478000000007D00000000000080847DB4
:1002D00000000000007F10284400000000417F4023
:1002E00000000000007C041804780000007C080472
:1002F0007C000000003844443800000000FC242446
:100300001800000000182424FC00000000007C08F5
:1003100004000000004854542400000000047F44FE
:1003200000000000003C40407C000000001C204019
:10033000201C0000003C4030403C000000442810DD
:1003400028440000001CA0A07C000000004464546D
:100350004C440000000836410000000000007F000F
:10036000000000000041360800000000000201010A
:10037000020100000002050502000000000000006C
:10038000250028002B0000000000240027002A0080
:10039000040404040404040402020202020203032B
:1003A0000303030301020408102040800102040833
:1003B000102001020408102000407A10F35A00A017
:1003C000724E18090010A5D4E80000E8764817001E
:1003D00000E40B54020000CA9A3B000000E1F5055E
:1003E000000080969800000040420F000000A086A8
:1003F00001000000102700000000E80300000000DA
:100400006400000000000A0000000000010000007D
:1004100000002C76D888DC674F0823DFC1DFAE5997
:10042000E1B1B796E5E3E453C63AE651997696E82A
:10043000E6C28426EB898C9B62ED407C6FFCEFBCAE
:100440009C9F40F2BAA56FA5F490055A2AF75C93D9
:100450006B6CF9676DC11BFCE0E40D47FEF520E60F
:10046000B500D0ED902E0300943577050080841EF2
:10047000080000204E0A000000C80C333333330F4D
:10048000986E12831141EF8D2114893BE65516CFEA
:10049000FEE6DB18D1844B381BF77C1D901DA4BBF6
:1004A000E424203284725E228100C9F124ECA1E5AB
:1004B0003D27A50C11241FBECFEFD8E0DEBFCDBF76
:1004C00011E0A0E0B1E0E2E8F8E202C005900D9290
:1004D000AC35B107D9F722E0ACE5B1E001C01D921F
:1004E000A03DB207E1F712E0CAE5D2E004C02197CF
:1004F000FE010E94D20CC935D107C9F70E942E0A0D
:100500000C943F140C94000090E0FC01EC55FC4F5F
:100510002491FC01E057FC4F8491882399F090E0EE
:10052000880F991FFC01EA57FC4FA591B491FC017B
:10053000E458FC4F859194918FB7F894EC91E22B9D
:10054000EC938FBF08958EBD00000DB407FEFDCF64
:100550008EB50895569A5E98559A5D980E94A302AA
:10056000559A5D9A0895CF93C82F569A5E9A559AD8
:100570005D98892F0E94A3028C2F0E94A302559A96
:100580005D9ACF9108950F931F93CF93DF938C01C2
:10059000EB018BE20E94AA02C8010E94B302CE01C5
:1005A000DF91CF911F910F910C94B3020F931F9382
:1005B000CF93DF938C01EB018AE20E94AA02C8016B
:1005C0000E94B302CE01DF91CF911F910F910C9445
:1005D000B302EF92FF920F931F93CF93DF93EB0140
:1005E0008A017901BC01640F751F0E94D602BE0109
:1005F000CE010E94C3028CE20E94AA02C0E0D0E0B9
:10060000C017D10729F0C7010E94B3022196F8CF85
:10061000DF91CF911F910F91FF90EF9008958F92EE
:100620009F92AF92BF92CF92DF92EF92FF920F9381
:100630001F93CF93DF936C015A014B01820E931EDF
:10064000EB017B01E814F904C9F08091CD02882305
:1006500051F0813011F0823021F49801A501BE01E2
:1006600005C0833031F49801A501B701C6010E948D
:10067000E9028FEFE81AF80A2197E4CFDF91CF91D2
:100680001F910F91FF90EF90DF90CF90BF90AF90B0
:100690009F908F9008952F923F924F925F926F920A
:1006A0007F928F929F92AF92BF92CF92DF92EF9202
:1006B000FF920F931F93CF93DF93CDB7DEB72C97A5
:1006C0000FB6F894DEBF0FBECDBF7C876B872C01C1
:1006D00086E3E82EFF24F394F20181912F01882311
:1006E00009F4BDC090EE980F903608F08FE128E035
:1006F000829FC0011124C12CD12C812C912CDC01B2
:10070000BA95BA87A987E985FA85E80DF91DE458F5
:10071000FF4FE49196012E0D3F1D38872F838B8567
:100720009C858C199D099E838D83D701AC19BD09C9
:10073000BC83AB832B853C852C0D3D1D3A832983DF
:10074000A12CB12C612C712C2E2E312CC101062C28
:1007500002C0959587950A94E2F780FF3DC080918D
:10076000CD0281110CC00FEF1FEF22E030E042E01C
:1007700050E0B5016E0D7F1D89819A812BC08130BB
:1007800069F40FEF1FEF22E030E042E050E06B81B0
:100790007C818B859C858A0D9B1D1CC0823061F4F9
:1007A0000FEF1FEF22E030E042E050E0B7016A199E
:1007B0007B098D819E810EC0833071F40FEF1FEF96
:1007C00022E030E042E050E06F8178858B859C85A7
:1007D0008A199B090E940F033FEF631A730A82E094
:1007E000A80EB11C98E06916710409F0AFCFAFEF05
:1007F0008A1A9A0AB2E0CB0ED11CE8E08E16910458
:1008000009F081CF8091CD0281110BC02B853C85F1
:100810002F3E310508F060CF205F3F4F3C872B878C
:100820005BCF813021F430E1E31AF10855CF8230FB
:1008300049F48B859C85009709F44ECF40979C879F
:100840008B874ACF833009F047CF9FE3E91691E0C9
:10085000F90608F041CFA0E1EA0EF11C3DCF2C963D
:100860000FB6F894DEBF0FBECDBFDF91CF911F91C1
:100870000F91FF90EF90DF90CF90BF90AF909F903F
:100880008F907F906F905F904F903F902F90089542
:10089000CF93DF93BC010E94D60266E371E08AE049
:1008A00090E00E94C3028CE20E94AA02CDE2D1E055
:1008B000219729F08FEF9FEF0E94B302F9CFDF91CC
:1008C000CF910895CF93DF93EC012FEF3FEF45E0F9
:1008D00050E06AE070E00E94E9022FEF3FEF45E050
:1008E00050E066E371E0CE010E94E902CE010E9471
:1008F0004804CE010596DF91CF910C944804CF9324
:10090000DF936FEE70E080E090E00E94D6026FE32C
:1009100071E080E090E00E94C3028CE20E94AA0293
:10092000569A5E9A559A5D98C0E0D6E980E00E949A
:10093000A30280E00E94A30280E00E94A30280E064
:100940000E94A302219791F7559A5D9ADF91CF916A
:100950000895569A5E9A559A5D980E94A302559AF8
:100960005D9A08953FB7F89480912C0290912D02E2
:10097000A0912E02B0912F0226B5A89B05C02F3F53
:1009800019F00196A11DB11D3FBFBA2FA92F982FB5
:100990008827820F911DA11DB11DBC01CD0142E030
:1009A000660F771F881F991F4A95D1F708958F9278
:1009B0009F92AF92BF92CF92DF92EF92FF926B0124
:1009C0007C010E94B2044B015C01C114D104E1041A
:1009D000F104F1F00E94B204DC01CB0188199909FD
:1009E000AA09BB09883E9340A105B10570F321E037
:1009F000C21AD108E108F10888EE880E83E0981E3B
:100A0000A11CB11CC114D104E104F10419F7DDCF1C
:100A1000FF90EF90DF90CF90BF90AF909F908F901E
:100A20000895CF92DF92EF92FF920F931F93CF938F
:100A3000DF936C017A018B01C0E0D0E0CE15DF05B9
:100A400089F0D8016D918D01D601ED91FC91019055
:100A5000F081E02DC6010995892B11F47E0102C0B9
:100A60002196ECCFC701DF91CF911F910F91FF909D
:100A7000EF90DF90CF900895089580E090E0089582
:100A8000FC01538D448D252F30E0842F90E0821B94
:100A9000930B541710F0CF96089501970895FC0119
:100AA000918D828D981761F0828DDF01A80FB11DA5
:100AB0005D968C91928D9F5F9F73928F90E00895C9
:100AC0008FEF9FEF0895FC01918D828D981731F083
:100AD000828DE80FF11D858D90E008958FEF9FEFD7
:100AE0000895FC01918D228D892F90E0805C9F4FAD
:100AF000821B91098F739927089580E392E00E94E9
:100B0000710521E0892B09F420E0822F0895FC0172
:100B1000848DDF01A80FB11DA35ABF4F2C91848D86
:100B200090E001968F739927848FA689B7892C93BB
:100B3000A089B1898C9180648C93938D848D981356
:100B400006C00288F389E02D80818F7D808308951F
:100B5000EF92FF920F931F93CF93DF93EC0181E00D
:100B6000888F9B8D8C8D981305C0E889F9898081C9
:100B700085FD24C0F62E0B8D10E00F5F1F4F0F7305
:100B80001127E02E8C8DE8120CC00FB607FCFACFAF
:100B9000E889F989808185FFF5CFCE010E9487051C
:100BA000F1CF8B8DFE01E80FF11DE35AFF4FF0826C
:100BB0000B8FEA89FB898081806207C0EE89FF89FB
:100BC0006083E889F98980818064808381E090E096
:100BD000DF91CF911F910F91FF90EF900895CF93E8
:100BE000DF93EC01888D8823C9F0EA89FB89808135
:100BF00085FD05C0A889B9898C9186FD0FC00FB607
:100C000007FCF5CF808185FFF2CFA889B9898C9147
:100C100085FFEDCFCE010E948705E7CFDF91CF9111
:100C2000089580E090E0892B29F00E947D058111D4
:100C30000C9400000895009769F0FC0101900020D9
:100C4000E9F73197AF01481B590BBC0180E392E0F3
:100C50000C94110580E090E008950E94790DEF92C8
:100C6000FF920F931F93CF93DF93CDB7DEB7C55F8E
:100C7000D1400FB6F894DEBF0FBECDBF80E392E047
:100C80000E947105892B09F458C2CE0101967C019E
:100C900000E010E02FB7F89480912802909129028B
:100CA000A0912A02B0912B022FBF8093380290931B
:100CB0003902A0933A02B0933B02E0913002F091E6
:100CC00031020284F385E02D80E392E0099597FDDF
:100CD0000AC0F70181937F010F5F1F4F043FF1E0CE
:100CE0001F07C1F624C02FB7F89480912802909175
:100CF0002902A0912A02B0912B022FBF4091380205
:100D00005091390260913A0270913B02841B950B1D
:100D1000A60BB70B40913402509135026091360218
:100D20007091370284179507A607B70730F2E1E004
:100D3000F0E0EC0FFD1FE00FF11D108262E171E0A9
:100D4000CE0101960E9466109093250280932402A2
:100D500062E171E080E090E00E94661090932302CF
:100D60008093220262E171E080E090E00E946610D0
:100D7000909321028093200262E171E080E090E094
:100D80000E94661090931F0280931E026AE070E03A
:100D900080E090E00E94D70464E171E08091240239
:100DA000909125020E94661090931D0280931C0270
:100DB00064E171E080E090E00E94661090931B0275
:100DC00080931A0264E171E080E090E00E94661076
:100DD00090931902809318020E943F100E940F13F3
:100DE00020E034E244E759E40E94D80C60931402F6
:100DF00070931502809316029093170264E171E0DC
:100E000080E090E00E94661090931302809312029B
:100E10000E943F100E940F1320E034E244E759E49F
:100E20000E94D80C60930E0270930F028093100200
:100E30009093110204E012E022E040E00E941F10B3
:100E40006091140270911502809116029091170220
:100E50000AEF11E022E040E00E941F1064E171E01F
:100E600080E090E00E9466109093F9018093F80171
:100E700064E171E080E090E00E9466109093F701D9
:100E80008093F601FC0101900020E9F7329710826F
:100E90000E943F100E940F1320E030E048EC52E423
:100EA0000E94D80C6093F2017093F3018093F401D7
:100EB0009093F5016AE070E080E090E00E94D70432
:100EC00064E171E080912202909123020E946610F9
:100ED0009093F1018093F00164E171E080E090E093
:100EE0000E9466109093EF018093EE0164E171E03F
:100EF00080E090E00E9466109093ED018093EC01F9
:100F00000E943F100E940F1320E034E244E759E4AE
:100F10000E94D80C6093E8017093E9018093EA0184
:100F20009093EB0164E171E080E090E00E94661034
:100F30009093E7018093E6010E943F100E940F13F7
:100F400020E034E244E759E40E94D80C6093E201C7
:100F50007093E3018093E4019093E50108ED11E0C3
:100F600022E040E00E941F106091E8017091E901C9
:100F70008091EA019091EB010EEC11E022E040E05B
:100F80000E941F1064E171E080E090E00E94661012
:100F90009093CD018093CC0164E171E080E090E01A
:100FA0000E9466109093CB018093CA01FC010190CE
:100FB0000020E9F7329710820E943F100E940F1321
:100FC00020E030E048EC52E40E94D80C6093C60167
:100FD0007093C7018093C8019093C9016AE070E0E3
:100FE00080E090E00E94D70464E171E080912002EB
:100FF000909121020E9466109093C5018093C401D4
:1010000064E171E080E090E00E9466109093C3017B
:101010008093C20164E171E080E090E00E9466107C
:101020009093C1018093C0010E943F100E940F1352
:1010300020E034E244E759E40E94D80C6093BC01FC
:101040007093BD018093BE019093BF0164E171E094
:1010500080E090E00E9466109093BB018093BA01FB
:101060000E943F100E940F1320E034E244E759E44D
:101070000E94D80C6093B6017093B7018093B801B9
:101080009093B9010CEA11E022E040E00E941F10A9
:101090006091BC017091BD018091BE019091BF0132
:1010A00002EA11E022E040E00E941F1064E171E0DA
:1010B00080E090E00E9466109093A1018093A001CF
:1010C00064E171E080E090E00E94661090939F01DF
:1010D00080939E01FC0101900020E9F73297108275
:1010E0000E943F100E940F1320E030E048EC52E4D1
:1010F0000E94D80C60939A0170939B0180939C018D
:1011000090939D016AE070E080E090E00E94D70437
:1011100064E171E080911E0290911F020E946610AE
:1011200090939901809398016AE070E080E090E0EC
:101130000E94D7040E947F04A1CD80912402909147
:101140002502892B09F444C06AE070E080911A02FC
:1011500090911B020E944B038EE190E00E9462047A
:1011600020E030E048E453E46091F2017091F30133
:101170008091F4019091F5010E944A130E944A0D5A
:1011800000EE17E09B0144E050E065E371E08FE181
:1011900090E00E940F038AEF91E09F938F9384E089
:1011A00092E09F938F9386E191E09F938F9384E8E1
:1011B00091E09F938F930E947E0D6DE270E084E832
:1011C00091E00E944B030FB6F894DEBF0FBECDBF77
:1011D0008091220290912302892B09F444C06AE590
:1011E00070E08091EE019091EF010E944B038EE63A
:1011F00090E00E94620420E030E048E453E4609113
:10120000C6017091C7018091C8019091C9010E94E7
:101210004A130E944A0D00EE17E09B0144E050E0A3
:1012200065E371E08FE690E00E940F038EEC91E0A1
:101230009F938F9388ED91E09F938F9386E191E048
:101240009F938F9380E791E09F938F930E947E0DF1
:101250006DE770E080E791E00E944B030FB6F894D1
:10126000DEBF0FBECDBF8091200290912102892B5D
:1012700009F444C06AEA70E08091C2019091C30110
:101280000E944B038EEB90E00E94620420E030E06D
:1012900048E453E460919A0170919B0180919C0114
:1012A00090919D010E944A130E944A0D00EE17E0A2
:1012B0009B0144E050E065E371E08FEB90E00E9419
:1012C0000F0382EA91E09F938F938CEA91E09F93C2
:1012D0008F9386E191E09F938F938CE591E09F93AC
:1012E0008F930E947E0D6DEC70E08CE591E00E9482
:1012F0004B030FB6F894DEBF0FBECDBFCB50DE4F11
:101300000FB6F894DEBF0FBECDBFDF91CF911F9116
:101310000F91FF90EF9008951F920F920FB60F92CA
:1013200011242F933F938F939F93AF93BF938091FB
:10133000280290912902A0912A02B0912B023091AB
:10134000270223E0230F2D3720F40196A11DB11DA4
:1013500005C026E8230F0296A11DB11D2093270288
:101360008093280290932902A0932A02B0932B0223
:1013700080912C0290912D02A0912E02B0912F020B
:101380000196A11DB11D80932C0290932D02A09374
:101390002E02B0932F02BF91AF919F918F913F91F9
:1013A0002F910F900FBE0F901F9018951F920F92C4
:1013B0000FB60F9211242F933F934F935F936F9328
:1013C0007F938F939F93AF93BF93EF93FF9380E3AC
:1013D00092E00E948705FF91EF91BF91AF919F919D
:1013E0008F917F916F915F914F913F912F910F90CE
:1013F0000FBE0F901F9018951F920F920FB60F926D
:1014000011242F938F939F93EF93FF93E0914002CA
:10141000F09141028081E0914602F091470282FD05
:1014200012C09081809149028F5F8F7320914A0290
:10143000821751F0E0914902F0E0E05DFD4F958F99
:101440008093490201C08081FF91EF919F918F911C
:101450002F910F900FBE0F901F901895CF93DF9391
:10146000CDB7DEB7A7970FB6F894DEBF0FBECDBFDE
:10147000789484B5826084BD84B5816084BD85B56F
:10148000826085BD85B5816085BD80916E0081607B
:1014900080936E0010928100809181008260809321
:1014A0008100809181008160809381008091800023
:1014B0008160809380008091B10084608093B1004E
:1014C0008091B00081608093B00080917A00846048
:1014D00080937A0080917A00826080937A00809174
:1014E0007A00816080937A0080917A00806880938E
:1014F0007A001092C100E0914002F091410282E036
:101500008083E0913C02F0913D021082E0913E0226
:10151000F0913F0280E1808310924802E091440202
:10152000F091450286E08083E0914202F09143020F
:10153000808180618083E0914202F091430280814A
:1015400088608083E0914202F0914302808180684C
:101550008083E0914202F091430280818F7D8083FD
:10156000579A5F9A1FB7F89480912602811163C041
:101570008AE993E0FC0124914EEA53E0FA01649178
:1015800030E0220F331F2A573C4FF901A591B49147
:101590002C91622309F040C0E2E7F0E02491FA01C7
:1015A0004491FC0194919923B9F1222339F123301C
:1015B00091F038F42130A9F0223001F584B58F7D07
:1015C00012C0273091F02830A1F02430B9F4809176
:1015D00080008F7D03C0809180008F778093800092
:1015E0000DC084B58F7784BD09C08091B0008F771E
:1015F00003C08091B0008F7D8093B000E92FF0E0B0
:10160000EE0FFF1FE458FC4FA591B4918FB7F894EB
:101610009C91492B4C938FBF8AE00E9484028CB529
:1016200080618CBD8CB580648CBD8DE00E9484028D
:101630008BE00E948402809126028F5F80932602B5
:101640001FBF559A5D9A569A5E9A13E003E941E4EA
:10165000B42E7E01F5E2EF0EF11C53E0A52EAE0C88
:101660001AA20BA3BCA2CE0182963C01470131E134
:10167000D32ECC24C39489ED0E94AA028D2D0E9402
:10168000A904569A5E98559A5D9883ED0E94A3022C
:10169000569A5E9A80E00E94A302559A5D9AF401E0
:1016A00081934F01F30191913F018913C12CD39490
:1016B000F4E1DF12E0CFC11033C08EE191E00E946F
:1016C0001B066701F60141916F0150E060E070E098
:1016D00019A2FE01B196DB01CA018F709927AA27D2
:1016E000BB2724E076956795579547952A95D1F7BE
:1016F00031978A309105A105B10510F4805D01C0D4
:10170000895C8083411551056105710521F7CF0181
:101710000E941B06AC10D6CF89E591E00E941B0603
:10172000115009F09DCF64EF71E080E090E00E94DD
:10173000D70481E00E94AA0268EC70E080E090E0AB
:101740000E94D7048FEC0E94AA0280E00E94A904A4
:101750008BE80E94A90480E30E94A9048DEE0E94F8
:10176000AA0287E60E94A90483E00E94A90482E1FC
:101770000E94A90481E80E94A90488EE0E94AA029E
:1017800085E80E94A90480E10E94A9048AE70E94DA
:10179000A9048BEC0E94AA0289E30E94A9048CE2AE
:1017A0000E94A90480E00E94A90484E30E94A90485
:1017B00082E00E94A90487EF0E94AA0280E20E94B0
:1017C000A9048AEE0E94AA0280E00E94A90480E097
:1017D0000E94A90480EC0E94AA028BE10E94A90445
:1017E00081EC0E94AA0280E10E94A90485EC0E947B
:1017F000AA028FE30E94A9048CE30E94A90487EC4B
:101800000E94AA0287EB0E94A90486E30E94AA0212
:1018100088E00E94A9048AE30E94AA0285E50E944A
:10182000A90481EB0E94AA0280E00E94A9048BE136
:101830000E94A90486EB0E94AA028AE00E94A904E1
:1018400082EA0E94A90482EF0E94AA0280E00E941C
:10185000A90486E20E94AA0281E00E94A90480EE07
:101860000E94AA028FE00E94A9048AE20E94A904B1
:1018700088E20E94A90488E00E94A9048EE00E94E8
:10188000A90488E00E94A90484E50E94A90489EAC9
:101890000E94A90483E40E94A9048AE00E94A9048A
:1018A0008FE00E94A90480E00E94A90480E00E94C9
:1018B000A90480E00E94A90480E00E94A90481EEAE
:1018C0000E94AA0280E00E94A90485E10E94A90466
:1018D00087E10E94A90487E00E94A90481E10E9497
:1018E000A90486E00E94A9048BE20E94A90486E56F
:1018F0000E94A9048CE30E94A90485E00E94A90427
:1019000080E10E94A9048FE00E94A9048FE30E9455
:10191000A9048FE30E94A9048FE00E94A90481E139
:101920000E94AA0268E770E080E090E00E94D7047D
:1019300089E20E94AA020E947F0481E08093CD0286
:101940000E942F060E941106FBCFE0E3F2E0138213
:10195000128288EE93E0A0E0B0E084839583A683B2
:10196000B78384E091E09183808385EC90E0958754
:10197000848784EC90E09787868780EC90E0918B59
:10198000808B81EC90E0938B828B82EC90E0958B46
:10199000848B86EC90E0978B868B118E128E138E43
:1019A000148E0895EE0FFF1F0590F491E02D099419
:1019B0000E94EC0C0C94CE130E94C71358F00E94A6
:1019C000C01340F029F45F3F29F00C94B713511174
:1019D0000C9402140C94BD130E94DF1368F3992336
:1019E000B1F3552391F3951B550BBB27AA2762171B
:1019F0007307840738F09F5F5F4F220F331F441F28
:101A0000AA1FA9F335D00E2E3AF0E0E832D091505B
:101A10005040E695001CCAF72BD0FE2F29D0660F48
:101A2000771F881FBB1F261737074807AB07B0E88B
:101A300009F0BB0B802DBF01FF2793585F4F3AF091
:101A40009E3F510578F00C94B7130C9402145F3F3D
:101A5000E4F3983ED4F3869577956795B795F79517
:101A60009F5FC9F7880F911D9695879597F90895FF
:101A7000E1E0660F771F881FBB1F6217730784079B
:101A8000BA0720F0621B730B840BBA0BEE1F88F7AA
:101A9000E09508950E94E71388F09F5798F0B92FBA
:101AA0009927B751B0F0E1F0660F771F881F991F93
:101AB0001AF0BA95C9F714C0B13091F00E94011420
:101AC000B1E008950C940114672F782F8827B85F30
:101AD00039F0B93FCCF3869577956795B395D9F7EB
:101AE0003EF490958095709561957F4F8F4F9F4FF5
:101AF000089581E090E0F8940C943F14AEE0B0E0DB
:101B0000E4E8FDE00C9416140D891E8986E08C83B0
:101B10001A8309838FEF9FE79E838D83AE01475E13
:101B20005F4F6F89788DCE0101960E94A10D2F81A4
:101B30003885F801E20FF31F10822E96E4E00C9432
:101B40003214ACE0B0E0E7EAFDE00C9408147C014C
:101B50006B018A01FC0117821682838181FFBDC15E
:101B6000CE0101964C01F7019381F60193FD859119
:101B700093FF81916F01882309F4ABC1853239F459
:101B800093FD859193FF81916F01853229F4B7010F
:101B900090E00E94890FE7CF512C312C20E02032B9
:101BA000A0F48B3269F030F4803259F0833269F45A
:101BB00020612CC08D3239F0803339F4216026C089
:101BC0002260246023C0286021C027FD27C030ED9B
:101BD000380F3A3078F426FF06C0FAE05F9E300DE9
:101BE0001124532E13C08AE0389E300D1124332E59
:101BF00020620CC08E3221F426FD6BC1206406C029
:101C00008C3611F4206802C0883641F4F60193FD49
:101C1000859193FF81916F018111C1CF982F9F7D95
:101C20009554933028F40C5F1F4FFFE3F9830DC0E8
:101C3000833631F0833771F0833509F05BC022C001
:101C4000F801808189830E5F1F4F44244394512CF7
:101C5000540115C03801F2E06F0E711CF801A0802C
:101C6000B18026FF03C0652D70E002C06FEF7FEFEB
:101C7000C5012C870E947E0F2C0183012C852F77B4
:101C8000222E17C03801F2E06F0E711CF801A080FF
:101C9000B18026FF03C0652D70E002C06FEF7FEFBB
:101CA000C5012C870E94730F2C012C852068222EE1
:101CB000830123FC1BC0832D90E048165906B0F425
:101CC000B70180E290E00E94890F3A94F4CFF501C9
:101CD00027FC859127FE81915F01B70190E00E946A
:101CE000890F31103A94F1E04F1A51084114510410
:101CF00071F7E5C0843611F0893639F5F80127FF10
:101D000007C060817181828193810C5F1F4F08C081
:101D100060817181072E000C880B990B0E5F1F4F9D
:101D20002F76722E97FF09C09095809570956195DA
:101D30007F4F8F4F9F4F2068722E2AE030E0A40122
:101D40000E94C10FA82EA81844C0853729F42F7E01
:101D5000B22E2AE030E025C0F22FF97FBF2E8F3659
:101D6000C1F018F4883579F0B4C0803719F088379D
:101D700021F0AFC02F2F2061B22EB4FE0DC08B2DED
:101D80008460B82E09C024FF0AC09F2F9660B92E28
:101D900006C028E030E005C020E130E002C020E1CC
:101DA00032E0F801B7FE07C06081718182819381C2
:101DB0000C5F1F4F06C06081718180E090E00E5F74
:101DC0001F4FA4010E94C10FA82EA818FB2DFF775A
:101DD0007F2E76FE0BC0372D3E7FA51450F474FE87
:101DE0000AC072FC08C0372D3E7E05C0BA2C372DC4
:101DF00003C0BA2C01C0B52C34FF0DC0FE01EA0DA2
:101E0000F11D8081803311F4397E09C032FF06C094
:101E1000B394B39404C0832F867809F0B39433FD50
:101E200013C030FF06C05A2CB31418F4530C5B18BF
:101E3000B32CB31468F4B70180E290E03C870E94B1
:101E4000890FB3943C85F5CFB31410F43B1801C04F
:101E5000312C34FF12C0B70180E390E03C870E9430
:101E6000890F3C8532FF17C031FD03C088E790E041
:101E700002C088E590E0B7010CC0832F867859F046
:101E800031FF02C08BE201C080E237FD8DE2B70175
:101E900090E00E94890FA51438F4B70180E390E028
:101EA0000E94890F5A94F7CFAA94F401EA0DF11D0C
:101EB0008081B70190E00E94890FA110F5CF3320F7
:101EC00009F451CEB70180E290E00E94890F3A9464
:101ED000F6CFF7018681978102C08FEF9FEF2C9696
:101EE000E2E10C942414FC01059061507040011053
:101EF000D8F7809590958E0F9F1F0895FC01615033
:101F0000704001900110D8F7809590958E0F9F1F1B
:101F100008950F931F93CF93DF93FB01238121FD3E
:101F200003C08FEF9FEF28C022FF16C04681578164
:101F3000248135814217530744F4A081B1819D016A
:101F40002F5F3F4F318320838C93268137812F5F12
:101F50003F4F3783268310C0EB01092F182F0084D1
:101F6000F185E02D0995892BE1F68E819F810196FF
:101F70009F838E83812F902FDF91CF911F910F919F
:101F80000895FA01AA27283051F1203181F1E8940F
:101F90006F936E7F6E5F7F4F8F4F9F4FAF4FB1E05C
:101FA0003ED0B4E03CD0670F781F891F9A1FA11D57
:101FB000680F791F8A1F911DA11D6A0F711D811D58
:101FC000911DA11D20D009F468943F912AE0269F1D
:101FD00011243019305D3193DEF6CF010895462F7C
:101FE0004770405D4193B3E00FD0C9F7F6CF462F5D
:101FF0004F70405D4A3318F0495D31FD40524193C6
:1020000002D0A9F7EACFB4E0A69597958795779582
:102010006795BA95C9F700976105710508959B0109
:10202000AC010A2E06945795479537952795BA9592
:10203000C9F7620F731F841F951FA01D0895EF92AB
:102040000F931F93CF93DF93E80147FD02C034E065
:1020500001C034E1E42F440FFF0BF7FF03C0F195FB
:10206000E195F109E32E022F2E2FAE010E94A71059
:10207000CE01DF91CF911F910F91EF9008951F93A3
:10208000FC0199278827BC01E89411911032E9F3EB
:10209000193010F01E30C8F31B3251F01D3249F4D4
:1020A000689406C00E949210610F711D811D911DE0
:1020B000119110531A30B0F33EF4909580957095BD
:1020C00061957F4F8F4F9F4F1F9108954EEC52E0C7
:1020D0000E946B100895FA01A191B081009719F444
:1020E0001097E1F0CD01DC01CD010D90002011F43D
:1020F000C00113C0FB012191222319F02015D9F74B
:10210000F3CFFB012191201519F41E92119606C000
:102110002223C1F70D900020A1F7D001FA01A1936D
:10212000B0830895592F482F372F262F660F771F1A
:10213000881F991F660F771F881F991F620F731FD3
:10214000841F951F660F771F881F991F08954F9250
:102150005F926F927F929F92AF92BF92CF92DF92E7
:10216000EF92FF920F931F93CF93DF93CDB7DEB71C
:1021700029970FB6F894DEBF0FBECDBF6A01122FAC
:10218000B02E2BE3201720F0FF24F394F00E02C0B2
:10219000BCE3FB2E0F2D27E0AE014F5F5F4F0E9487
:1021A0003512AC018981982F9970913031F0E1FCA2
:1021B00006C0E0FE06C090E205C09DE203C09BE2BF
:1021C00001C090E0EE2DE07183FF3CC0911102C090
:1021D00083E001C084E0811718F4212F281B01C07F
:1021E00020E0E1110BC0F601822F30E2882319F0C4
:1021F00031938150FBCFC20ED11C20E0992329F0EE
:10220000D6019C93F60131966F01C6010396E2FE5A
:102210000AC03EE4D6013C9341E411964C931197D9
:1022200012963C9306C03EE6F601308341E64183B8
:102230003283FC01322F40E2332309F442C0419340
:102240003150FACF82FF44C0911102C083E001C037
:1022500084E0811718F4212F281B01C020E0E11130
:102260000BC0F601822F30E2882319F031938150A0
:10227000FBCFC20ED11C20E0992329F0D6019C93FC
:10228000F60131966F01C6010396E2FE0BC039E4F8
:10229000D6013C933EE411963C93119736E4129696
:1022A0003C9307C039E6F60130833EE6318336E6DB
:1022B0003283FC01322F40E2332319F04193315035
:1022C000FBCFFC01E20FF11D10828EEF9FEFB7C034
:1022D000F1E0911101C0F0E06F2F70E014161506C7
:1022E00024F49A012F5F3F4F02C021E030E0260F17
:1022F000371FBB2029F06B2D70E06F5F7F4F02C04E
:1023000060E070E0260F371F612F70E02617370757
:102310001CF4121B212F01C020E03E2D387159F40E
:10232000D601322F60E2332319F06D933150FBCF89
:10233000C20ED11C20E0FF2331F0D6019C93B601E0
:102340006F5F7F4F6B01E1110BC0F601922F30E3FD
:10235000992319F031939150FBCFC20ED11C20E08C
:102360009F2D940F3A81782F7071A72E84FF03C0A0
:10237000313309F49150191624F4993018F098E08B
:1023800001C091E0E42F852F57FF02C0E0E080E01C
:102390006E2F782FE0E0F0E0AEE29A2E3A01691A53
:1023A00071082A01461A570A0B2D10E01195019564
:1023B00011096F3F8FEF780729F4D6019C92C6016F
:1023C00001966C014617570784F0661677066CF481
:1023D0007F01E40CF51CA1E0B0E0AC0FBD1FEA0EDC
:1023E000FB1ED7011196BC9002C090E3B92E61503C
:1023F00071093196C60101967C016017710724F0BE
:10240000D601BC926C01D5CF6417750741F4363301
:1024100020F4353321F4A11002C081E3B82EF60177
:10242000B082F701822F90E2882319F091938150B6
:10243000FBCFF701E20FF11D108280E090E02996BA
:102440000FB6F894DEBF0FBECDBFDF91CF911F91C5
:102450000F91FF90EF90DF90CF90BF90AF909F9043
:102460007F906F905F904F900895283008F027E09C
:102470003327DA01990F311D87FD916000966105C0
:10248000710539F432602E5F3D9330E32A95E1F710
:1024900008959F3F30F080387105610509F03C5F79
:1024A0003C5F3D93913008F08068911DDF93CF939E
:1024B0001F930F93FF92EF92192F987F9695E92F14
:1024C00096959695E90FFF27EE5EFB4F99273327E8
:1024D000EE24FF24A701E70105900894079428F44F
:1024E000360FE71EF81E491F511D660F771F881F04
:1024F000991F0694A1F70590079428F4E70EF81E9B
:10250000491F561FC11D770F881F991F661F06940C
:10251000A1F70590079428F4F80E491F561FC71F0E
:10252000D11D880F991F661F771F0694A1F705908C
:10253000079420F4490F561FC71FD81F990F661F15
:10254000771F881F0694A9F784911095177041F0A2
:10255000D695C79557954795F794E7941A95C1F77F
:10256000E8EBF3E06894159015913591659195919C
:1025700005907FE27395E118F10A430B560BC90BE6
:10258000D009C0F7E10CF11E431F561FC91FD01D13
:102590007EF4703311F48A95E6CFE894015030F060
:1025A000080F0AF40027021708F4202F2395022FA2
:1025B0007A3328F079E37D932A95E9F710C07D936B
:1025C0002A9589F6069497956795379517951794E8
:1025D000E118F10A430B560BC90BD00998F023956B
:1025E0007E9173957A3308F070E37C932013B8F7EB
:1025F0007E9170617D9330F0839571E37D9370E3FC
:102600002A95E1F71124EF90FF900F911F91CF9140
:10261000DF91992787FD90950895E89409C097FB6D
:102620003EF490958095709561957F4F8F4F9F4FA9
:102630009923A9F0F92F96E9BB279395F6958795ED
:1026400077956795B795F111F8CFFAF4BB0F11F4B0
:1026500060FF1BC06F5F7F4F8F4F9F4F16C0882357
:1026600011F096E911C0772321F09EE8872F762F8D
:1026700005C0662371F096E8862F70E060E02AF0CE
:102680009A95660F771F881FDAF7880F96958795BA
:1026900097F908950E945D130C94CE130E94C01305
:1026A00038F00E94C71320F0952311F00C94B71353
:1026B0000C94BD1311240C9402140E94DF1370F3C8
:1026C000959FC1F3950F50E0551F629FF001729FD7
:1026D000BB27F00DB11D639FAA27F00DB11DAA1FE6
:1026E000649F6627B00DA11D661F829F2227B00D33
:1026F000A11D621F739FB00DA11D621F839FA00DBE
:10270000611D221F749F3327A00D611D231F849F0D
:10271000600D211D822F762F6A2F11249F57504064
:102720009AF0F1F088234AF0EE0FFF1FBB1F661FDF
:10273000771F881F91505040A9F79E3F510580F0A8
:102740000C94B7130C9402145F3FE4F3983ED4F357
:10275000869577956795B795F795E7959F5FC1F74C
:10276000FE2B880F911D9695879597F9089597F9F7
:102770009F6780E870E060E008959FEF80EC089527
:1027800000240A9416161706180609060895002450
:102790000A9412161306140605060895092E0394CA
:1027A000000C11F4882352F0BB0F40F4BF2B11F43E
:1027B00060FF04C06F5F7F4F8F4F9F4F089557FD9D
:1027C0009058440F551F59F05F3F71F04795880F9F
:1027D00097FB991F61F09F3F79F087950895121636
:1027E00013061406551FF2CF4695F1DF08C01616E2
:1027F00017061806991FF1CF869571056105089493
:102800000895E894BB2766277727CB0197F90895A9
:102810002F923F924F925F926F927F928F929F92F0
:10282000AF92BF92CF92DF92EF92FF920F931F93DE
:10283000CF93DF93CDB7DEB7CA1BDB0B0FB6F8948F
:10284000DEBF0FBECDBF09942A88398848885F84CF
:102850006E847D848C849B84AA84B984C884DF8040
:10286000EE80FD800C811B81AA81B981CE0FD11D24
:102870000FB6F894DEBF0FBECDBFED010895F894FA
:02288000FFCF88
:1028820000000000A80511054005EF0571054F0580
:10289200630526003A002573202F20257300526518
:1028A200616420544654204944206661696C656421
:1028B2002C2049442073686F756C64206265203057
:1028C2007830393334312C2062757420726561643A
:0C28D200204944203D203078000D0A0011
:00000001FF
